{
  "_format": "hh-sol-artifact-1",
  "contractName": "DexaMessenger",
  "sourceName": "contracts/DexaMessenger.sol",
  "abi": [
    {
      "inputs": [
        {
          "internalType": "address payable",
          "name": "_dexaCreator",
          "type": "address"
        }
      ],
      "stateMutability": "nonpayable",
      "type": "constructor"
    },
    {
      "inputs": [],
      "name": "AccessControlBadConfirmation",
      "type": "error"
    },
    {
      "inputs": [
        {
          "internalType": "address",
          "name": "account",
          "type": "address"
        },
        {
          "internalType": "bytes32",
          "name": "neededRole",
          "type": "bytes32"
        }
      ],
      "name": "AccessControlUnauthorizedAccount",
      "type": "error"
    },
    {
      "inputs": [],
      "name": "InvalidInitialization",
      "type": "error"
    },
    {
      "inputs": [],
      "name": "NotInitializing",
      "type": "error"
    },
    {
      "anonymous": false,
      "inputs": [
        {
          "indexed": false,
          "internalType": "uint64",
          "name": "version",
          "type": "uint64"
        }
      ],
      "name": "Initialized",
      "type": "event"
    },
    {
      "anonymous": false,
      "inputs": [
        {
          "indexed": true,
          "internalType": "bytes32",
          "name": "role",
          "type": "bytes32"
        },
        {
          "indexed": true,
          "internalType": "bytes32",
          "name": "previousAdminRole",
          "type": "bytes32"
        },
        {
          "indexed": true,
          "internalType": "bytes32",
          "name": "newAdminRole",
          "type": "bytes32"
        }
      ],
      "name": "RoleAdminChanged",
      "type": "event"
    },
    {
      "anonymous": false,
      "inputs": [
        {
          "indexed": true,
          "internalType": "bytes32",
          "name": "role",
          "type": "bytes32"
        },
        {
          "indexed": true,
          "internalType": "address",
          "name": "account",
          "type": "address"
        },
        {
          "indexed": true,
          "internalType": "address",
          "name": "sender",
          "type": "address"
        }
      ],
      "name": "RoleGranted",
      "type": "event"
    },
    {
      "anonymous": false,
      "inputs": [
        {
          "indexed": true,
          "internalType": "bytes32",
          "name": "role",
          "type": "bytes32"
        },
        {
          "indexed": true,
          "internalType": "address",
          "name": "account",
          "type": "address"
        },
        {
          "indexed": true,
          "internalType": "address",
          "name": "sender",
          "type": "address"
        }
      ],
      "name": "RoleRevoked",
      "type": "event"
    },
    {
      "inputs": [],
      "name": "CREATOR_ROLE",
      "outputs": [
        {
          "internalType": "bytes32",
          "name": "",
          "type": "bytes32"
        }
      ],
      "stateMutability": "view",
      "type": "function"
    },
    {
      "inputs": [],
      "name": "DEFAULT_ADMIN_ROLE",
      "outputs": [
        {
          "internalType": "bytes32",
          "name": "",
          "type": "bytes32"
        }
      ],
      "stateMutability": "view",
      "type": "function"
    },
    {
      "inputs": [],
      "name": "DEXA_CREATOR_ROLE",
      "outputs": [
        {
          "internalType": "bytes32",
          "name": "",
          "type": "bytes32"
        }
      ],
      "stateMutability": "view",
      "type": "function"
    },
    {
      "inputs": [],
      "name": "DEXA_FEEDS_ROLE",
      "outputs": [
        {
          "internalType": "bytes32",
          "name": "",
          "type": "bytes32"
        }
      ],
      "stateMutability": "view",
      "type": "function"
    },
    {
      "inputs": [],
      "name": "DEXA_MESSENGER_ROLE",
      "outputs": [
        {
          "internalType": "bytes32",
          "name": "",
          "type": "bytes32"
        }
      ],
      "stateMutability": "view",
      "type": "function"
    },
    {
      "inputs": [],
      "name": "DEXA_STORAGE_ROLE",
      "outputs": [
        {
          "internalType": "bytes32",
          "name": "",
          "type": "bytes32"
        }
      ],
      "stateMutability": "view",
      "type": "function"
    },
    {
      "inputs": [],
      "name": "ERROR_DUPLICATE_RESOURCE",
      "outputs": [
        {
          "internalType": "string",
          "name": "",
          "type": "string"
        }
      ],
      "stateMutability": "view",
      "type": "function"
    },
    {
      "inputs": [],
      "name": "ERROR_INVALID_PRICE",
      "outputs": [
        {
          "internalType": "string",
          "name": "",
          "type": "string"
        }
      ],
      "stateMutability": "view",
      "type": "function"
    },
    {
      "inputs": [],
      "name": "ERROR_INVALID_STRING",
      "outputs": [
        {
          "internalType": "string",
          "name": "",
          "type": "string"
        }
      ],
      "stateMutability": "view",
      "type": "function"
    },
    {
      "inputs": [],
      "name": "ERROR_NOT_FOUND",
      "outputs": [
        {
          "internalType": "string",
          "name": "",
          "type": "string"
        }
      ],
      "stateMutability": "view",
      "type": "function"
    },
    {
      "inputs": [],
      "name": "ERROR_PROCESS_FAILED",
      "outputs": [
        {
          "internalType": "string",
          "name": "",
          "type": "string"
        }
      ],
      "stateMutability": "view",
      "type": "function"
    },
    {
      "inputs": [],
      "name": "ERROR_UNAUTHORISED_ACCESS",
      "outputs": [
        {
          "internalType": "string",
          "name": "",
          "type": "string"
        }
      ],
      "stateMutability": "view",
      "type": "function"
    },
    {
      "inputs": [],
      "name": "dexaCreator",
      "outputs": [
        {
          "internalType": "contract DexaCreator",
          "name": "",
          "type": "address"
        }
      ],
      "stateMutability": "view",
      "type": "function"
    },
    {
      "inputs": [
        {
          "internalType": "bytes32",
          "name": "role",
          "type": "bytes32"
        }
      ],
      "name": "getRoleAdmin",
      "outputs": [
        {
          "internalType": "bytes32",
          "name": "",
          "type": "bytes32"
        }
      ],
      "stateMutability": "view",
      "type": "function"
    },
    {
      "inputs": [
        {
          "internalType": "bytes32",
          "name": "role",
          "type": "bytes32"
        },
        {
          "internalType": "address",
          "name": "account",
          "type": "address"
        }
      ],
      "name": "grantRole",
      "outputs": [],
      "stateMutability": "nonpayable",
      "type": "function"
    },
    {
      "inputs": [
        {
          "internalType": "bytes32",
          "name": "role",
          "type": "bytes32"
        },
        {
          "internalType": "address",
          "name": "account",
          "type": "address"
        }
      ],
      "name": "hasRole",
      "outputs": [
        {
          "internalType": "bool",
          "name": "",
          "type": "bool"
        }
      ],
      "stateMutability": "view",
      "type": "function"
    },
    {
      "inputs": [
        {
          "internalType": "bytes32",
          "name": "role",
          "type": "bytes32"
        },
        {
          "internalType": "address",
          "name": "callerConfirmation",
          "type": "address"
        }
      ],
      "name": "renounceRole",
      "outputs": [],
      "stateMutability": "nonpayable",
      "type": "function"
    },
    {
      "inputs": [
        {
          "internalType": "bytes32",
          "name": "role",
          "type": "bytes32"
        },
        {
          "internalType": "address",
          "name": "account",
          "type": "address"
        }
      ],
      "name": "revokeRole",
      "outputs": [],
      "stateMutability": "nonpayable",
      "type": "function"
    },
    {
      "inputs": [
        {
          "internalType": "bytes4",
          "name": "interfaceId",
          "type": "bytes4"
        }
      ],
      "name": "supportsInterface",
      "outputs": [
        {
          "internalType": "bool",
          "name": "",
          "type": "bool"
        }
      ],
      "stateMutability": "view",
      "type": "function"
    }
  ],
  "bytecode": "0x60806040523480156200001157600080fd5b506040516200107e3803806200107e833981810160405281019062000037919062000274565b6200004c6000801b336200009560201b60201c565b5080600160006101000a81548173ffffffffffffffffffffffffffffffffffffffff021916908373ffffffffffffffffffffffffffffffffffffffff16021790555050620002a6565b6000620000a983836200019860201b60201c565b6200018d57600160008085815260200190815260200160002060000160008473ffffffffffffffffffffffffffffffffffffffff1673ffffffffffffffffffffffffffffffffffffffff16815260200190815260200160002060006101000a81548160ff021916908315150217905550620001296200020260201b60201c565b73ffffffffffffffffffffffffffffffffffffffff168273ffffffffffffffffffffffffffffffffffffffff16847f2f8788117e7eff1d82e926ec794901d17c78024a50270940304540a733656f0d60405160405180910390a46001905062000192565b600090505b92915050565b600080600084815260200190815260200160002060000160008373ffffffffffffffffffffffffffffffffffffffff1673ffffffffffffffffffffffffffffffffffffffff16815260200190815260200160002060009054906101000a900460ff16905092915050565b600033905090565b600080fd5b600073ffffffffffffffffffffffffffffffffffffffff82169050919050565b60006200023c826200020f565b9050919050565b6200024e816200022f565b81146200025a57600080fd5b50565b6000815190506200026e8162000243565b92915050565b6000602082840312156200028d576200028c6200020a565b5b60006200029d848285016200025d565b91505092915050565b610dc880620002b66000396000f3fe608060405234801561001057600080fd5b50600436106101215760003560e01c80635e0118b6116100ad578063a720640e11610071578063a720640e146102fc578063ad4fb5cd1461031a578063d547741f14610338578063f22b9ab614610354578063fc23413a1461037257610121565b80635e0118b6146102545780638aeda25a1461027257806391d1485414610290578063980e3af8146102c0578063a217fddf146102de57610121565b806334b89fb7116100f457806334b89fb7146101c0578063362c3ab8146101de57806336568abe146101fc5780633e7a3e3e146102185780635c1072641461023657610121565b806301ffc9a714610126578063248a9ca3146101565780632576bdea146101865780632f2ff15d146101a4575b600080fd5b610140600480360381019061013b9190610aa0565b610390565b60405161014d9190610ae8565b60405180910390f35b610170600480360381019061016b9190610b39565b61040a565b60405161017d9190610b75565b60405180910390f35b61018e610429565b60405161019b9190610b75565b60405180910390f35b6101be60048036038101906101b99190610bee565b61044d565b005b6101c861046f565b6040516101d59190610cbe565b60405180910390f35b6101e66104a8565b6040516101f39190610cbe565b60405180910390f35b61021660048036038101906102119190610bee565b6104e1565b005b61022061055c565b60405161022d9190610d3f565b60405180910390f35b61023e610582565b60405161024b9190610cbe565b60405180910390f35b61025c6105bb565b6040516102699190610b75565b60405180910390f35b61027a6105df565b6040516102879190610b75565b60405180910390f35b6102aa60048036038101906102a59190610bee565b610603565b6040516102b79190610ae8565b60405180910390f35b6102c861066d565b6040516102d59190610b75565b60405180910390f35b6102e6610691565b6040516102f39190610b75565b60405180910390f35b610304610698565b6040516103119190610b75565b60405180910390f35b6103226106bc565b60405161032f9190610cbe565b60405180910390f35b610352600480360381019061034d9190610bee565b6106f5565b005b61035c610717565b6040516103699190610cbe565b60405180910390f35b61037a610750565b6040516103879190610cbe565b60405180910390f35b60007f7965db0b000000000000000000000000000000000000000000000000000000007bffffffffffffffffffffffffffffffffffffffffffffffffffffffff1916827bffffffffffffffffffffffffffffffffffffffffffffffffffffffff19161480610403575061040282610789565b5b9050919050565b6000806000838152602001908152602001600020600101549050919050565b7f4b3781db2a3808229e80877aa6761365508dec12dd2e53e8aa88fa3d4ec3728e81565b6104568261040a565b61045f816107f3565b6104698383610807565b50505050565b6040518060400160405280601381526020017f556e617574686f7269736564206163636573730000000000000000000000000081525081565b6040518060400160405280600d81526020017f496e76616c69642070726963650000000000000000000000000000000000000081525081565b6104e96108f8565b73ffffffffffffffffffffffffffffffffffffffff168173ffffffffffffffffffffffffffffffffffffffff161461054d576040517f6697b23200000000000000000000000000000000000000000000000000000000815260040160405180910390fd5b6105578282610900565b505050565b600160009054906101000a900473ffffffffffffffffffffffffffffffffffffffff1681565b6040518060400160405280600e81526020017f50726f63657373206661696c656400000000000000000000000000000000000081525081565b7f0e071082e8835e151107baeb3781cd9c05e5a89fda0b31203ab6c4fe9ab6053e81565b7f828634d95e775031b9ff576b159a8509d3053581a8c9c4d7d86899e0afcd882f81565b600080600084815260200190815260200160002060000160008373ffffffffffffffffffffffffffffffffffffffff1673ffffffffffffffffffffffffffffffffffffffff16815260200190815260200160002060009054906101000a900460ff16905092915050565b7f2181c3a1e1946525e992f349aaf934d32ac0f996941711c8feead97c8903541281565b6000801b81565b7f32863739b48df1305798f7fcf52babbde2cbca78a222d5c3cafc17f2126a030481565b6040518060400160405280601281526020017f5265736f75726365206e6f7420666f756e64000000000000000000000000000081525081565b6106fe8261040a565b610707816107f3565b6107118383610900565b50505050565b6040518060400160405280601781526020017f5265736f7572636520616c72656164792065786973747300000000000000000081525081565b6040518060400160405280600e81526020017f496e76616c696420737472696e6700000000000000000000000000000000000081525081565b60007f01ffc9a7000000000000000000000000000000000000000000000000000000007bffffffffffffffffffffffffffffffffffffffffffffffffffffffff1916827bffffffffffffffffffffffffffffffffffffffffffffffffffffffff1916149050919050565b610804816107ff6108f8565b6109f2565b50565b60006108138383610603565b6108ed57600160008085815260200190815260200160002060000160008473ffffffffffffffffffffffffffffffffffffffff1673ffffffffffffffffffffffffffffffffffffffff16815260200190815260200160002060006101000a81548160ff02191690831515021790555061088a6108f8565b73ffffffffffffffffffffffffffffffffffffffff168273ffffffffffffffffffffffffffffffffffffffff16847f2f8788117e7eff1d82e926ec794901d17c78024a50270940304540a733656f0d60405160405180910390a4600190506108f2565b600090505b92915050565b600033905090565b600061090c8383610603565b156109e757600080600085815260200190815260200160002060000160008473ffffffffffffffffffffffffffffffffffffffff1673ffffffffffffffffffffffffffffffffffffffff16815260200190815260200160002060006101000a81548160ff0219169083151502179055506109846108f8565b73ffffffffffffffffffffffffffffffffffffffff168273ffffffffffffffffffffffffffffffffffffffff16847ff6391f5c32d9c69d2a47ea670b442974b53935d1edc7fd64eb21e047a839171b60405160405180910390a4600190506109ec565b600090505b92915050565b6109fc8282610603565b610a3f5780826040517fe2517d3f000000000000000000000000000000000000000000000000000000008152600401610a36929190610d69565b60405180910390fd5b5050565b600080fd5b60007fffffffff0000000000000000000000000000000000000000000000000000000082169050919050565b610a7d81610a48565b8114610a8857600080fd5b50565b600081359050610a9a81610a74565b92915050565b600060208284031215610ab657610ab5610a43565b5b6000610ac484828501610a8b565b91505092915050565b60008115159050919050565b610ae281610acd565b82525050565b6000602082019050610afd6000830184610ad9565b92915050565b6000819050919050565b610b1681610b03565b8114610b2157600080fd5b50565b600081359050610b3381610b0d565b92915050565b600060208284031215610b4f57610b4e610a43565b5b6000610b5d84828501610b24565b91505092915050565b610b6f81610b03565b82525050565b6000602082019050610b8a6000830184610b66565b92915050565b600073ffffffffffffffffffffffffffffffffffffffff82169050919050565b6000610bbb82610b90565b9050919050565b610bcb81610bb0565b8114610bd657600080fd5b50565b600081359050610be881610bc2565b92915050565b60008060408385031215610c0557610c04610a43565b5b6000610c1385828601610b24565b9250506020610c2485828601610bd9565b9150509250929050565b600081519050919050565b600082825260208201905092915050565b60005b83811015610c68578082015181840152602081019050610c4d565b60008484015250505050565b6000601f19601f8301169050919050565b6000610c9082610c2e565b610c9a8185610c39565b9350610caa818560208601610c4a565b610cb381610c74565b840191505092915050565b60006020820190508181036000830152610cd88184610c85565b905092915050565b6000819050919050565b6000610d05610d00610cfb84610b90565b610ce0565b610b90565b9050919050565b6000610d1782610cea565b9050919050565b6000610d2982610d0c565b9050919050565b610d3981610d1e565b82525050565b6000602082019050610d546000830184610d30565b92915050565b610d6381610bb0565b82525050565b6000604082019050610d7e6000830185610d5a565b610d8b6020830184610b66565b939250505056fea2646970667358221220d48813047935c034223ab9024679ce644e7a2d236121da886e6b11a7c357da8464736f6c63430008140033",
  "linkReferences": {},
  "deployedLinkReferences": {}
}