{
  "_format": "hh-sol-artifact-1",
  "contractName": "DexaCreator",
  "sourceName": "contracts/DexaCreator.sol",
  "abi": [
    {
      "inputs": [],
      "stateMutability": "nonpayable",
      "type": "constructor"
    },
    {
      "inputs": [],
      "name": "AccessControlBadConfirmation",
      "type": "error"
    },
    {
      "inputs": [
        {
          "internalType": "address",
          "name": "account",
          "type": "address"
        },
        {
          "internalType": "bytes32",
          "name": "neededRole",
          "type": "bytes32"
        }
      ],
      "name": "AccessControlUnauthorizedAccount",
      "type": "error"
    },
    {
      "inputs": [],
      "name": "InvalidInitialization",
      "type": "error"
    },
    {
      "inputs": [],
      "name": "NotInitializing",
      "type": "error"
    },
    {
      "anonymous": false,
      "inputs": [
        {
          "indexed": true,
          "internalType": "address",
          "name": "userAddress",
          "type": "address"
        },
        {
          "indexed": false,
          "internalType": "uint256",
          "name": "amount",
          "type": "uint256"
        }
      ],
      "name": "BalanceCredited",
      "type": "event"
    },
    {
      "anonymous": false,
      "inputs": [
        {
          "indexed": true,
          "internalType": "address",
          "name": "userAddress",
          "type": "address"
        },
        {
          "indexed": false,
          "internalType": "uint256",
          "name": "amount",
          "type": "uint256"
        }
      ],
      "name": "BalanceDebited",
      "type": "event"
    },
    {
      "anonymous": false,
      "inputs": [
        {
          "indexed": false,
          "internalType": "uint64",
          "name": "version",
          "type": "uint64"
        }
      ],
      "name": "Initialized",
      "type": "event"
    },
    {
      "anonymous": false,
      "inputs": [
        {
          "indexed": true,
          "internalType": "address",
          "name": "creator",
          "type": "address"
        },
        {
          "indexed": false,
          "internalType": "string",
          "name": "displayName",
          "type": "string"
        },
        {
          "indexed": false,
          "internalType": "string",
          "name": "username",
          "type": "string"
        }
      ],
      "name": "NewCreator",
      "type": "event"
    },
    {
      "anonymous": false,
      "inputs": [
        {
          "indexed": true,
          "internalType": "bytes32",
          "name": "role",
          "type": "bytes32"
        },
        {
          "indexed": true,
          "internalType": "bytes32",
          "name": "previousAdminRole",
          "type": "bytes32"
        },
        {
          "indexed": true,
          "internalType": "bytes32",
          "name": "newAdminRole",
          "type": "bytes32"
        }
      ],
      "name": "RoleAdminChanged",
      "type": "event"
    },
    {
      "anonymous": false,
      "inputs": [
        {
          "indexed": true,
          "internalType": "bytes32",
          "name": "role",
          "type": "bytes32"
        },
        {
          "indexed": true,
          "internalType": "address",
          "name": "account",
          "type": "address"
        },
        {
          "indexed": true,
          "internalType": "address",
          "name": "sender",
          "type": "address"
        }
      ],
      "name": "RoleGranted",
      "type": "event"
    },
    {
      "anonymous": false,
      "inputs": [
        {
          "indexed": true,
          "internalType": "bytes32",
          "name": "role",
          "type": "bytes32"
        },
        {
          "indexed": true,
          "internalType": "address",
          "name": "account",
          "type": "address"
        },
        {
          "indexed": true,
          "internalType": "address",
          "name": "sender",
          "type": "address"
        }
      ],
      "name": "RoleRevoked",
      "type": "event"
    },
    {
      "anonymous": false,
      "inputs": [
        {
          "indexed": true,
          "internalType": "address",
          "name": "tokenAddress",
          "type": "address"
        }
      ],
      "name": "TokenAdded",
      "type": "event"
    },
    {
      "anonymous": false,
      "inputs": [
        {
          "indexed": true,
          "internalType": "address",
          "name": "userAddress",
          "type": "address"
        },
        {
          "indexed": true,
          "internalType": "address",
          "name": "tokenAddress",
          "type": "address"
        }
      ],
      "name": "TokenAddressAdded",
      "type": "event"
    },
    {
      "anonymous": false,
      "inputs": [
        {
          "indexed": true,
          "internalType": "address",
          "name": "from",
          "type": "address"
        },
        {
          "indexed": true,
          "internalType": "address",
          "name": "to",
          "type": "address"
        },
        {
          "indexed": false,
          "internalType": "uint256",
          "name": "amount",
          "type": "uint256"
        }
      ],
      "name": "Transferred",
      "type": "event"
    },
    {
      "stateMutability": "payable",
      "type": "fallback"
    },
    {
      "inputs": [],
      "name": "CREATOR_ROLE",
      "outputs": [
        {
          "internalType": "bytes32",
          "name": "",
          "type": "bytes32"
        }
      ],
      "stateMutability": "view",
      "type": "function"
    },
    {
      "inputs": [],
      "name": "DEFAULT_ADMIN_ROLE",
      "outputs": [
        {
          "internalType": "bytes32",
          "name": "",
          "type": "bytes32"
        }
      ],
      "stateMutability": "view",
      "type": "function"
    },
    {
      "inputs": [],
      "name": "DEXA_CREATOR_ROLE",
      "outputs": [
        {
          "internalType": "bytes32",
          "name": "",
          "type": "bytes32"
        }
      ],
      "stateMutability": "view",
      "type": "function"
    },
    {
      "inputs": [],
      "name": "DEXA_FEEDS_ROLE",
      "outputs": [
        {
          "internalType": "bytes32",
          "name": "",
          "type": "bytes32"
        }
      ],
      "stateMutability": "view",
      "type": "function"
    },
    {
      "inputs": [],
      "name": "DEXA_MESSENGER_ROLE",
      "outputs": [
        {
          "internalType": "bytes32",
          "name": "",
          "type": "bytes32"
        }
      ],
      "stateMutability": "view",
      "type": "function"
    },
    {
      "inputs": [],
      "name": "DEXA_STORAGE_ROLE",
      "outputs": [
        {
          "internalType": "bytes32",
          "name": "",
          "type": "bytes32"
        }
      ],
      "stateMutability": "view",
      "type": "function"
    },
    {
      "inputs": [],
      "name": "ERROR_DUPLICATE_RESOURCE",
      "outputs": [
        {
          "internalType": "string",
          "name": "",
          "type": "string"
        }
      ],
      "stateMutability": "view",
      "type": "function"
    },
    {
      "inputs": [],
      "name": "ERROR_INVALID_PRICE",
      "outputs": [
        {
          "internalType": "string",
          "name": "",
          "type": "string"
        }
      ],
      "stateMutability": "view",
      "type": "function"
    },
    {
      "inputs": [],
      "name": "ERROR_INVALID_STRING",
      "outputs": [
        {
          "internalType": "string",
          "name": "",
          "type": "string"
        }
      ],
      "stateMutability": "view",
      "type": "function"
    },
    {
      "inputs": [],
      "name": "ERROR_NOT_FOUND",
      "outputs": [
        {
          "internalType": "string",
          "name": "",
          "type": "string"
        }
      ],
      "stateMutability": "view",
      "type": "function"
    },
    {
      "inputs": [],
      "name": "ERROR_PROCESS_FAILED",
      "outputs": [
        {
          "internalType": "string",
          "name": "",
          "type": "string"
        }
      ],
      "stateMutability": "view",
      "type": "function"
    },
    {
      "inputs": [],
      "name": "ERROR_UNAUTHORISED_ACCESS",
      "outputs": [
        {
          "internalType": "string",
          "name": "",
          "type": "string"
        }
      ],
      "stateMutability": "view",
      "type": "function"
    },
    {
      "inputs": [
        {
          "internalType": "address",
          "name": "",
          "type": "address"
        }
      ],
      "name": "_allowedTokens",
      "outputs": [
        {
          "internalType": "bool",
          "name": "",
          "type": "bool"
        }
      ],
      "stateMutability": "view",
      "type": "function"
    },
    {
      "inputs": [
        {
          "internalType": "address[]",
          "name": "tokenAddress",
          "type": "address[]"
        }
      ],
      "name": "addTokenToWhitelist",
      "outputs": [],
      "stateMutability": "nonpayable",
      "type": "function"
    },
    {
      "inputs": [],
      "name": "creatorCount",
      "outputs": [
        {
          "internalType": "uint256",
          "name": "",
          "type": "uint256"
        }
      ],
      "stateMutability": "view",
      "type": "function"
    },
    {
      "inputs": [],
      "name": "feeRate",
      "outputs": [
        {
          "internalType": "uint256",
          "name": "",
          "type": "uint256"
        }
      ],
      "stateMutability": "view",
      "type": "function"
    },
    {
      "inputs": [
        {
          "internalType": "bytes32",
          "name": "role",
          "type": "bytes32"
        }
      ],
      "name": "getRoleAdmin",
      "outputs": [
        {
          "internalType": "bytes32",
          "name": "",
          "type": "bytes32"
        }
      ],
      "stateMutability": "view",
      "type": "function"
    },
    {
      "inputs": [
        {
          "internalType": "bytes32",
          "name": "role",
          "type": "bytes32"
        },
        {
          "internalType": "address",
          "name": "account",
          "type": "address"
        }
      ],
      "name": "grantRole",
      "outputs": [],
      "stateMutability": "nonpayable",
      "type": "function"
    },
    {
      "inputs": [
        {
          "internalType": "bytes32",
          "name": "role",
          "type": "bytes32"
        },
        {
          "internalType": "address",
          "name": "account",
          "type": "address"
        }
      ],
      "name": "hasRole",
      "outputs": [
        {
          "internalType": "bool",
          "name": "",
          "type": "bool"
        }
      ],
      "stateMutability": "view",
      "type": "function"
    },
    {
      "inputs": [
        {
          "internalType": "address",
          "name": "_admin",
          "type": "address"
        }
      ],
      "name": "init_dexa_base",
      "outputs": [],
      "stateMutability": "nonpayable",
      "type": "function"
    },
    {
      "inputs": [
        {
          "internalType": "address",
          "name": "_admin",
          "type": "address"
        }
      ],
      "name": "init_dexa_creator",
      "outputs": [],
      "stateMutability": "nonpayable",
      "type": "function"
    },
    {
      "inputs": [
        {
          "internalType": "address",
          "name": "_dexaFeed",
          "type": "address"
        },
        {
          "internalType": "address",
          "name": "_dexaMessenger",
          "type": "address"
        }
      ],
      "name": "init_roles",
      "outputs": [],
      "stateMutability": "nonpayable",
      "type": "function"
    },
    {
      "inputs": [
        {
          "internalType": "string",
          "name": "username",
          "type": "string"
        }
      ],
      "name": "isNameFree",
      "outputs": [
        {
          "internalType": "bool",
          "name": "",
          "type": "bool"
        }
      ],
      "stateMutability": "view",
      "type": "function"
    },
    {
      "inputs": [],
      "name": "owner",
      "outputs": [
        {
          "internalType": "address",
          "name": "",
          "type": "address"
        }
      ],
      "stateMutability": "view",
      "type": "function"
    },
    {
      "inputs": [
        {
          "internalType": "string",
          "name": "displayName",
          "type": "string"
        },
        {
          "internalType": "string",
          "name": "username",
          "type": "string"
        },
        {
          "internalType": "string",
          "name": "dexaProfile",
          "type": "string"
        }
      ],
      "name": "registerCreator",
      "outputs": [],
      "stateMutability": "nonpayable",
      "type": "function"
    },
    {
      "inputs": [
        {
          "internalType": "bytes32",
          "name": "role",
          "type": "bytes32"
        },
        {
          "internalType": "address",
          "name": "callerConfirmation",
          "type": "address"
        }
      ],
      "name": "renounceRole",
      "outputs": [],
      "stateMutability": "nonpayable",
      "type": "function"
    },
    {
      "inputs": [
        {
          "internalType": "bytes32",
          "name": "role",
          "type": "bytes32"
        },
        {
          "internalType": "address",
          "name": "account",
          "type": "address"
        }
      ],
      "name": "revokeRole",
      "outputs": [],
      "stateMutability": "nonpayable",
      "type": "function"
    },
    {
      "inputs": [
        {
          "internalType": "uint256",
          "name": "_feeRate",
          "type": "uint256"
        }
      ],
      "name": "setAdminFee",
      "outputs": [],
      "stateMutability": "nonpayable",
      "type": "function"
    },
    {
      "inputs": [
        {
          "internalType": "bytes4",
          "name": "interfaceId",
          "type": "bytes4"
        }
      ],
      "name": "supportsInterface",
      "outputs": [
        {
          "internalType": "bool",
          "name": "",
          "type": "bool"
        }
      ],
      "stateMutability": "view",
      "type": "function"
    },
    {
      "inputs": [],
      "name": "transactionCount",
      "outputs": [
        {
          "internalType": "uint256",
          "name": "",
          "type": "uint256"
        }
      ],
      "stateMutability": "view",
      "type": "function"
    },
    {
      "stateMutability": "payable",
      "type": "receive"
    }
  ],
  "bytecode": "0x60806040523480156200001157600080fd5b50620000276000801b336200006f60201b60201c565b5033600460006101000a81548173ffffffffffffffffffffffffffffffffffffffff021916908373ffffffffffffffffffffffffffffffffffffffff160217905550620001e4565b60006200008383836200017260201b60201c565b6200016757600160008085815260200190815260200160002060000160008473ffffffffffffffffffffffffffffffffffffffff1673ffffffffffffffffffffffffffffffffffffffff16815260200190815260200160002060006101000a81548160ff02191690831515021790555062000103620001dc60201b60201c565b73ffffffffffffffffffffffffffffffffffffffff168273ffffffffffffffffffffffffffffffffffffffff16847f2f8788117e7eff1d82e926ec794901d17c78024a50270940304540a733656f0d60405160405180910390a4600190506200016c565b600090505b92915050565b600080600084815260200190815260200160002060000160008373ffffffffffffffffffffffffffffffffffffffff1673ffffffffffffffffffffffffffffffffffffffff16815260200190815260200160002060009054906101000a900460ff16905092915050565b600033905090565b611dd180620001f46000396000f3fe6080604052600436106101d15760003560e01c80638beb60b6116100f7578063a720640e11610095578063d547741f11610064578063d547741f14610682578063d82faa48146106ab578063f22b9ab6146106d6578063fc23413a14610701576101d8565b8063a720640e146105c4578063ad4fb5cd146105ef578063b7660cd31461061a578063b77bf60014610657576101d8565b8063978bbdb9116100d1578063978bbdb91461051a578063980e3af814610545578063a1c864e914610570578063a217fddf14610599576101d8565b80638beb60b6146104895780638da5cb5b146104b257806391d14854146104dd576101d8565b806334b89fb71161016f5780635e0118b61161013e5780635e0118b6146103e1578063847741a01461040c57806389c72556146104355780638aeda25a1461045e576101d8565b806334b89fb714610337578063362c3ab81461036257806336568abe1461038d5780635c107264146103b6576101d8565b80632576bdea116101ab5780632576bdea14610291578063263ef5b9146102bc5780632ce70722146102e55780632f2ff15d1461030e576101d8565b806301ffc9a7146101da57806308a1cd0514610217578063248a9ca314610254576101d8565b366101d857005b005b3480156101e657600080fd5b5061020160048036038101906101fc9190611587565b61072c565b60405161020e91906115cf565b60405180910390f35b34801561022357600080fd5b5061023e60048036038101906102399190611730565b6107a6565b60405161024b91906115cf565b60405180910390f35b34801561026057600080fd5b5061027b600480360381019061027691906117af565b6107b1565b60405161028891906117eb565b60405180910390f35b34801561029d57600080fd5b506102a66107d0565b6040516102b391906117eb565b60405180910390f35b3480156102c857600080fd5b506102e360048036038101906102de9190611864565b6107f4565b005b3480156102f157600080fd5b5061030c60048036038101906103079190611864565b6109a5565b005b34801561031a57600080fd5b5061033560048036038101906103309190611891565b610b39565b005b34801561034357600080fd5b5061034c610b5b565b6040516103599190611950565b60405180910390f35b34801561036e57600080fd5b50610377610b94565b6040516103849190611950565b60405180910390f35b34801561039957600080fd5b506103b460048036038101906103af9190611891565b610bcd565b005b3480156103c257600080fd5b506103cb610c48565b6040516103d89190611950565b60405180910390f35b3480156103ed57600080fd5b506103f6610c81565b60405161040391906117eb565b60405180910390f35b34801561041857600080fd5b50610433600480360381019061042e9190611972565b610ca5565b005b34801561044157600080fd5b5061045c60048036038101906104579190611a7a565b610d0d565b005b34801561046a57600080fd5b50610473610e0d565b60405161048091906117eb565b60405180910390f35b34801561049557600080fd5b506104b060048036038101906104ab9190611af9565b610e31565b005b3480156104be57600080fd5b506104c7610e49565b6040516104d49190611b35565b60405180910390f35b3480156104e957600080fd5b5061050460048036038101906104ff9190611891565b610e6f565b60405161051191906115cf565b60405180910390f35b34801561052657600080fd5b5061052f610ed9565b60405161053c9190611b5f565b60405180910390f35b34801561055157600080fd5b5061055a610edf565b60405161056791906117eb565b60405180910390f35b34801561057c57600080fd5b5061059760048036038101906105929190611b7a565b610f03565b005b3480156105a557600080fd5b506105ae6110fe565b6040516105bb91906117eb565b60405180910390f35b3480156105d057600080fd5b506105d9611105565b6040516105e691906117eb565b60405180910390f35b3480156105fb57600080fd5b50610604611129565b6040516106119190611950565b60405180910390f35b34801561062657600080fd5b50610641600480360381019061063c9190611864565b611162565b60405161064e91906115cf565b60405180910390f35b34801561066357600080fd5b5061066c611182565b6040516106799190611b5f565b60405180910390f35b34801561068e57600080fd5b506106a960048036038101906106a49190611891565b611188565b005b3480156106b757600080fd5b506106c06111aa565b6040516106cd9190611b5f565b60405180910390f35b3480156106e257600080fd5b506106eb6111b0565b6040516106f89190611950565b60405180910390f35b34801561070d57600080fd5b506107166111e9565b6040516107239190611950565b60405180910390f35b60007f7965db0b000000000000000000000000000000000000000000000000000000007bffffffffffffffffffffffffffffffffffffffffffffffffffffffff1916827bffffffffffffffffffffffffffffffffffffffffffffffffffffffff1916148061079f575061079e82611222565b5b9050919050565b600060019050919050565b6000806000838152602001908152602001600020600101549050919050565b7f4b3781db2a3808229e80877aa6761365508dec12dd2e53e8aa88fa3d4ec3728e81565b60006107fe61128c565b905060008160000160089054906101000a900460ff1615905060008260000160009054906101000a900467ffffffffffffffff1690506000808267ffffffffffffffff1614801561084c5750825b9050600060018367ffffffffffffffff16148015610881575060003073ffffffffffffffffffffffffffffffffffffffff163b145b90508115801561088f575080155b156108c6576040517ff92ee8a900000000000000000000000000000000000000000000000000000000815260040160405180910390fd5b60018560000160006101000a81548167ffffffffffffffff021916908367ffffffffffffffff16021790555083156109165760018560000160086101000a81548160ff0219169083151502179055505b6109407f2181c3a1e1946525e992f349aaf934d32ac0f996941711c8feead97c89035412876112a0565b50831561099d5760008560000160086101000a81548160ff0219169083151502179055507fc7f505b2f371ae2175ee4913f4499e1f2633a7b5936321eed1cdaeb6115181d260016040516109949190611c7a565b60405180910390a15b505050505050565b60006109af61128c565b905060008160000160089054906101000a900460ff1615905060008260000160009054906101000a900467ffffffffffffffff1690506000808267ffffffffffffffff161480156109fd5750825b9050600060018367ffffffffffffffff16148015610a32575060003073ffffffffffffffffffffffffffffffffffffffff163b145b905081158015610a40575080155b15610a77576040517ff92ee8a900000000000000000000000000000000000000000000000000000000815260040160405180910390fd5b60018560000160006101000a81548167ffffffffffffffff021916908367ffffffffffffffff1602179055508315610ac75760018560000160086101000a81548160ff0219169083151502179055505b610ad46000801b876112a0565b508315610b315760008560000160086101000a81548160ff0219169083151502179055507fc7f505b2f371ae2175ee4913f4499e1f2633a7b5936321eed1cdaeb6115181d26001604051610b289190611c7a565b60405180910390a15b505050505050565b610b42826107b1565b610b4b81611391565b610b5583836112a0565b50505050565b6040518060400160405280601381526020017f556e617574686f7269736564206163636573730000000000000000000000000081525081565b6040518060400160405280600d81526020017f496e76616c69642070726963650000000000000000000000000000000000000081525081565b610bd56113a5565b73ffffffffffffffffffffffffffffffffffffffff168173ffffffffffffffffffffffffffffffffffffffff1614610c39576040517f6697b23200000000000000000000000000000000000000000000000000000000815260040160405180910390fd5b610c4382826113ad565b505050565b6040518060400160405280600e81526020017f50726f63657373206661696c656400000000000000000000000000000000000081525081565b7f0e071082e8835e151107baeb3781cd9c05e5a89fda0b31203ab6c4fe9ab6053e81565b6000801b610cb281611391565b610cdc7f4b3781db2a3808229e80877aa6761365508dec12dd2e53e8aa88fa3d4ec3728e846112a0565b50610d077f32863739b48df1305798f7fcf52babbde2cbca78a222d5c3cafc17f2126a0304836112a0565b50505050565b6000801b610d1a81611391565b60005b8251811015610e0857600160056000858481518110610d3f57610d3e611c95565b5b602002602001015173ffffffffffffffffffffffffffffffffffffffff1673ffffffffffffffffffffffffffffffffffffffff16815260200190815260200160002060006101000a81548160ff021916908315150217905550828181518110610dab57610daa611c95565b5b602002602001015173ffffffffffffffffffffffffffffffffffffffff167f784c8f4dbf0ffedd6e72c76501c545a70f8b203b30a26ce542bf92ba87c248a460405160405180910390a28080610e0090611cf3565b915050610d1d565b505050565b7f828634d95e775031b9ff576b159a8509d3053581a8c9c4d7d86899e0afcd882f81565b6000801b610e3e81611391565b816001819055505050565b600460009054906101000a900473ffffffffffffffffffffffffffffffffffffffff1681565b600080600084815260200190815260200160002060000160008373ffffffffffffffffffffffffffffffffffffffff1673ffffffffffffffffffffffffffffffffffffffff16815260200190815260200160002060009054906101000a900460ff16905092915050565b60015481565b7f2181c3a1e1946525e992f349aaf934d32ac0f996941711c8feead97c8903541281565b60008351116040518060400160405280600e81526020017f496e76616c696420737472696e6700000000000000000000000000000000000081525090610f7f576040517f08c379a0000000000000000000000000000000000000000000000000000000008152600401610f769190611950565b60405180910390fd5b5060008251116040518060400160405280600e81526020017f496e76616c696420737472696e6700000000000000000000000000000000000081525090610ffc576040517f08c379a0000000000000000000000000000000000000000000000000000000008152600401610ff39190611950565b60405180910390fd5b50611006826107a6565b6040518060400160405280601781526020017f5265736f7572636520616c7265616479206578697374730000000000000000008152509061107d576040517f08c379a00000000000000000000000000000000000000000000000000000000081526004016110749190611950565b60405180910390fd5b506110a87f828634d95e775031b9ff576b159a8509d3053581a8c9c4d7d86899e0afcd882f336112a0565b503373ffffffffffffffffffffffffffffffffffffffff167f21dd0ecdd49765309a51fb77b31ada340d3bf2d7b6cf11cda8c66234933e8fb784846040516110f1929190611d3b565b60405180910390a2505050565b6000801b81565b7f32863739b48df1305798f7fcf52babbde2cbca78a222d5c3cafc17f2126a030481565b6040518060400160405280601281526020017f5265736f75726365206e6f7420666f756e64000000000000000000000000000081525081565b60056020528060005260406000206000915054906101000a900460ff1681565b60035481565b611191826107b1565b61119a81611391565b6111a483836113ad565b50505050565b60025481565b6040518060400160405280601781526020017f5265736f7572636520616c72656164792065786973747300000000000000000081525081565b6040518060400160405280600e81526020017f496e76616c696420737472696e6700000000000000000000000000000000000081525081565b60007f01ffc9a7000000000000000000000000000000000000000000000000000000007bffffffffffffffffffffffffffffffffffffffffffffffffffffffff1916827bffffffffffffffffffffffffffffffffffffffffffffffffffffffff1916149050919050565b60008061129761149f565b90508091505090565b60006112ac8383610e6f565b61138657600160008085815260200190815260200160002060000160008473ffffffffffffffffffffffffffffffffffffffff1673ffffffffffffffffffffffffffffffffffffffff16815260200190815260200160002060006101000a81548160ff0219169083151502179055506113236113a5565b73ffffffffffffffffffffffffffffffffffffffff168273ffffffffffffffffffffffffffffffffffffffff16847f2f8788117e7eff1d82e926ec794901d17c78024a50270940304540a733656f0d60405160405180910390a46001905061138b565b600090505b92915050565b6113a28161139d6113a5565b6114ca565b50565b600033905090565b60006113b98383610e6f565b1561149457600080600085815260200190815260200160002060000160008473ffffffffffffffffffffffffffffffffffffffff1673ffffffffffffffffffffffffffffffffffffffff16815260200190815260200160002060006101000a81548160ff0219169083151502179055506114316113a5565b73ffffffffffffffffffffffffffffffffffffffff168273ffffffffffffffffffffffffffffffffffffffff16847ff6391f5c32d9c69d2a47ea670b442974b53935d1edc7fd64eb21e047a839171b60405160405180910390a460019050611499565b600090505b92915050565b60007ff0c57e16840df040f15088dc2f81fe391c3923bec73e23a9662efc9c229c6a0060001b905090565b6114d48282610e6f565b6115175780826040517fe2517d3f00000000000000000000000000000000000000000000000000000000815260040161150e929190611d72565b60405180910390fd5b5050565b6000604051905090565b600080fd5b600080fd5b60007fffffffff0000000000000000000000000000000000000000000000000000000082169050919050565b6115648161152f565b811461156f57600080fd5b50565b6000813590506115818161155b565b92915050565b60006020828403121561159d5761159c611525565b5b60006115ab84828501611572565b91505092915050565b60008115159050919050565b6115c9816115b4565b82525050565b60006020820190506115e460008301846115c0565b92915050565b600080fd5b600080fd5b6000601f19601f8301169050919050565b7f4e487b7100000000000000000000000000000000000000000000000000000000600052604160045260246000fd5b61163d826115f4565b810181811067ffffffffffffffff8211171561165c5761165b611605565b5b80604052505050565b600061166f61151b565b905061167b8282611634565b919050565b600067ffffffffffffffff82111561169b5761169a611605565b5b6116a4826115f4565b9050602081019050919050565b82818337600083830152505050565b60006116d36116ce84611680565b611665565b9050828152602081018484840111156116ef576116ee6115ef565b5b6116fa8482856116b1565b509392505050565b600082601f830112611717576117166115ea565b5b81356117278482602086016116c0565b91505092915050565b60006020828403121561174657611745611525565b5b600082013567ffffffffffffffff8111156117645761176361152a565b5b61177084828501611702565b91505092915050565b6000819050919050565b61178c81611779565b811461179757600080fd5b50565b6000813590506117a981611783565b92915050565b6000602082840312156117c5576117c4611525565b5b60006117d38482850161179a565b91505092915050565b6117e581611779565b82525050565b600060208201905061180060008301846117dc565b92915050565b600073ffffffffffffffffffffffffffffffffffffffff82169050919050565b600061183182611806565b9050919050565b61184181611826565b811461184c57600080fd5b50565b60008135905061185e81611838565b92915050565b60006020828403121561187a57611879611525565b5b60006118888482850161184f565b91505092915050565b600080604083850312156118a8576118a7611525565b5b60006118b68582860161179a565b92505060206118c78582860161184f565b9150509250929050565b600081519050919050565b600082825260208201905092915050565b60005b8381101561190b5780820151818401526020810190506118f0565b60008484015250505050565b6000611922826118d1565b61192c81856118dc565b935061193c8185602086016118ed565b611945816115f4565b840191505092915050565b6000602082019050818103600083015261196a8184611917565b905092915050565b6000806040838503121561198957611988611525565b5b60006119978582860161184f565b92505060206119a88582860161184f565b9150509250929050565b600067ffffffffffffffff8211156119cd576119cc611605565b5b602082029050602081019050919050565b600080fd5b60006119f66119f1846119b2565b611665565b90508083825260208201905060208402830185811115611a1957611a186119de565b5b835b81811015611a425780611a2e888261184f565b845260208401935050602081019050611a1b565b5050509392505050565b600082601f830112611a6157611a606115ea565b5b8135611a718482602086016119e3565b91505092915050565b600060208284031215611a9057611a8f611525565b5b600082013567ffffffffffffffff811115611aae57611aad61152a565b5b611aba84828501611a4c565b91505092915050565b6000819050919050565b611ad681611ac3565b8114611ae157600080fd5b50565b600081359050611af381611acd565b92915050565b600060208284031215611b0f57611b0e611525565b5b6000611b1d84828501611ae4565b91505092915050565b611b2f81611826565b82525050565b6000602082019050611b4a6000830184611b26565b92915050565b611b5981611ac3565b82525050565b6000602082019050611b746000830184611b50565b92915050565b600080600060608486031215611b9357611b92611525565b5b600084013567ffffffffffffffff811115611bb157611bb061152a565b5b611bbd86828701611702565b935050602084013567ffffffffffffffff811115611bde57611bdd61152a565b5b611bea86828701611702565b925050604084013567ffffffffffffffff811115611c0b57611c0a61152a565b5b611c1786828701611702565b9150509250925092565b6000819050919050565b600067ffffffffffffffff82169050919050565b6000819050919050565b6000611c64611c5f611c5a84611c21565b611c3f565b611c2b565b9050919050565b611c7481611c49565b82525050565b6000602082019050611c8f6000830184611c6b565b92915050565b7f4e487b7100000000000000000000000000000000000000000000000000000000600052603260045260246000fd5b7f4e487b7100000000000000000000000000000000000000000000000000000000600052601160045260246000fd5b6000611cfe82611ac3565b91507fffffffffffffffffffffffffffffffffffffffffffffffffffffffffffffffff8203611d3057611d2f611cc4565b5b600182019050919050565b60006040820190508181036000830152611d558185611917565b90508181036020830152611d698184611917565b90509392505050565b6000604082019050611d876000830185611b26565b611d9460208301846117dc565b939250505056fea2646970667358221220c36bf42220ba8df1aa3562ff43e200b36768ca4e9cfd3409db181dcd4c0d1a0464736f6c63430008140033",
  "linkReferences": {},
  "deployedLinkReferences": {}
}