{
  "_format": "hh-sol-artifact-1",
  "contractName": "DexaFeeds",
  "sourceName": "contracts/DexaFeeds.sol",
  "abi": [
    {
      "inputs": [
        {
          "internalType": "address payable",
          "name": "_dexaCreator",
          "type": "address"
        },
        {
          "internalType": "address",
          "name": "_feedsToken",
          "type": "address"
        }
      ],
      "stateMutability": "nonpayable",
      "type": "constructor"
    },
    {
      "inputs": [],
      "name": "AccessControlBadConfirmation",
      "type": "error"
    },
    {
      "inputs": [
        {
          "internalType": "address",
          "name": "account",
          "type": "address"
        },
        {
          "internalType": "bytes32",
          "name": "neededRole",
          "type": "bytes32"
        }
      ],
      "name": "AccessControlUnauthorizedAccount",
      "type": "error"
    },
    {
      "inputs": [],
      "name": "InvalidInitialization",
      "type": "error"
    },
    {
      "inputs": [],
      "name": "NotInitializing",
      "type": "error"
    },
    {
      "anonymous": false,
      "inputs": [
        {
          "indexed": false,
          "internalType": "uint64",
          "name": "version",
          "type": "uint64"
        }
      ],
      "name": "Initialized",
      "type": "event"
    },
    {
      "anonymous": false,
      "inputs": [
        {
          "indexed": true,
          "internalType": "address",
          "name": "creator",
          "type": "address"
        },
        {
          "indexed": true,
          "internalType": "uint256",
          "name": "postId",
          "type": "uint256"
        },
        {
          "indexed": false,
          "internalType": "string",
          "name": "gnfdId",
          "type": "string"
        },
        {
          "indexed": false,
          "internalType": "address",
          "name": "remintToken",
          "type": "address"
        },
        {
          "indexed": false,
          "internalType": "uint256",
          "name": "remintPrice",
          "type": "uint256"
        }
      ],
      "name": "PostMinted",
      "type": "event"
    },
    {
      "anonymous": false,
      "inputs": [
        {
          "indexed": true,
          "internalType": "bytes32",
          "name": "role",
          "type": "bytes32"
        },
        {
          "indexed": true,
          "internalType": "bytes32",
          "name": "previousAdminRole",
          "type": "bytes32"
        },
        {
          "indexed": true,
          "internalType": "bytes32",
          "name": "newAdminRole",
          "type": "bytes32"
        }
      ],
      "name": "RoleAdminChanged",
      "type": "event"
    },
    {
      "anonymous": false,
      "inputs": [
        {
          "indexed": true,
          "internalType": "bytes32",
          "name": "role",
          "type": "bytes32"
        },
        {
          "indexed": true,
          "internalType": "address",
          "name": "account",
          "type": "address"
        },
        {
          "indexed": true,
          "internalType": "address",
          "name": "sender",
          "type": "address"
        }
      ],
      "name": "RoleGranted",
      "type": "event"
    },
    {
      "anonymous": false,
      "inputs": [
        {
          "indexed": true,
          "internalType": "bytes32",
          "name": "role",
          "type": "bytes32"
        },
        {
          "indexed": true,
          "internalType": "address",
          "name": "account",
          "type": "address"
        },
        {
          "indexed": true,
          "internalType": "address",
          "name": "sender",
          "type": "address"
        }
      ],
      "name": "RoleRevoked",
      "type": "event"
    },
    {
      "anonymous": false,
      "inputs": [
        {
          "indexed": true,
          "internalType": "address",
          "name": "from",
          "type": "address"
        },
        {
          "indexed": true,
          "internalType": "address",
          "name": "to",
          "type": "address"
        },
        {
          "indexed": false,
          "internalType": "uint256",
          "name": "amount",
          "type": "uint256"
        },
        {
          "indexed": true,
          "internalType": "uint256",
          "name": "postId",
          "type": "uint256"
        },
        {
          "indexed": false,
          "internalType": "string",
          "name": "offChainId",
          "type": "string"
        },
        {
          "indexed": false,
          "internalType": "string",
          "name": "message",
          "type": "string"
        },
        {
          "indexed": false,
          "internalType": "address",
          "name": "tippedToken",
          "type": "address"
        },
        {
          "indexed": false,
          "internalType": "uint256",
          "name": "tipId",
          "type": "uint256"
        }
      ],
      "name": "Tipped",
      "type": "event"
    },
    {
      "anonymous": false,
      "inputs": [
        {
          "indexed": true,
          "internalType": "address",
          "name": "tokenAddress",
          "type": "address"
        }
      ],
      "name": "TokenAdded",
      "type": "event"
    },
    {
      "inputs": [],
      "name": "CREATOR_ROLE",
      "outputs": [
        {
          "internalType": "bytes32",
          "name": "",
          "type": "bytes32"
        }
      ],
      "stateMutability": "view",
      "type": "function"
    },
    {
      "inputs": [],
      "name": "DEFAULT_ADMIN_ROLE",
      "outputs": [
        {
          "internalType": "bytes32",
          "name": "",
          "type": "bytes32"
        }
      ],
      "stateMutability": "view",
      "type": "function"
    },
    {
      "inputs": [],
      "name": "DEXA_CREATOR_ROLE",
      "outputs": [
        {
          "internalType": "bytes32",
          "name": "",
          "type": "bytes32"
        }
      ],
      "stateMutability": "view",
      "type": "function"
    },
    {
      "inputs": [],
      "name": "DEXA_FEEDS_ROLE",
      "outputs": [
        {
          "internalType": "bytes32",
          "name": "",
          "type": "bytes32"
        }
      ],
      "stateMutability": "view",
      "type": "function"
    },
    {
      "inputs": [],
      "name": "DEXA_MESSENGER_ROLE",
      "outputs": [
        {
          "internalType": "bytes32",
          "name": "",
          "type": "bytes32"
        }
      ],
      "stateMutability": "view",
      "type": "function"
    },
    {
      "inputs": [],
      "name": "DEXA_STORAGE_ROLE",
      "outputs": [
        {
          "internalType": "bytes32",
          "name": "",
          "type": "bytes32"
        }
      ],
      "stateMutability": "view",
      "type": "function"
    },
    {
      "inputs": [],
      "name": "ERROR_DUPLICATE_RESOURCE",
      "outputs": [
        {
          "internalType": "string",
          "name": "",
          "type": "string"
        }
      ],
      "stateMutability": "view",
      "type": "function"
    },
    {
      "inputs": [],
      "name": "ERROR_INVALID_PRICE",
      "outputs": [
        {
          "internalType": "string",
          "name": "",
          "type": "string"
        }
      ],
      "stateMutability": "view",
      "type": "function"
    },
    {
      "inputs": [],
      "name": "ERROR_INVALID_STRING",
      "outputs": [
        {
          "internalType": "string",
          "name": "",
          "type": "string"
        }
      ],
      "stateMutability": "view",
      "type": "function"
    },
    {
      "inputs": [],
      "name": "ERROR_NOT_FOUND",
      "outputs": [
        {
          "internalType": "string",
          "name": "",
          "type": "string"
        }
      ],
      "stateMutability": "view",
      "type": "function"
    },
    {
      "inputs": [],
      "name": "ERROR_PROCESS_FAILED",
      "outputs": [
        {
          "internalType": "string",
          "name": "",
          "type": "string"
        }
      ],
      "stateMutability": "view",
      "type": "function"
    },
    {
      "inputs": [],
      "name": "ERROR_UNAUTHORISED_ACCESS",
      "outputs": [
        {
          "internalType": "string",
          "name": "",
          "type": "string"
        }
      ],
      "stateMutability": "view",
      "type": "function"
    },
    {
      "inputs": [
        {
          "internalType": "address",
          "name": "",
          "type": "address"
        }
      ],
      "name": "_allowedTokens",
      "outputs": [
        {
          "internalType": "bool",
          "name": "",
          "type": "bool"
        }
      ],
      "stateMutability": "view",
      "type": "function"
    },
    {
      "inputs": [
        {
          "internalType": "address[]",
          "name": "tokenAddress",
          "type": "address[]"
        }
      ],
      "name": "addTokenToWhitelist",
      "outputs": [],
      "stateMutability": "nonpayable",
      "type": "function"
    },
    {
      "inputs": [
        {
          "internalType": "uint256",
          "name": "postId",
          "type": "uint256"
        },
        {
          "internalType": "string",
          "name": "commentId",
          "type": "string"
        },
        {
          "internalType": "string",
          "name": "content",
          "type": "string"
        }
      ],
      "name": "commentOnPost",
      "outputs": [],
      "stateMutability": "nonpayable",
      "type": "function"
    },
    {
      "inputs": [],
      "name": "dexaCreator",
      "outputs": [
        {
          "internalType": "contract DexaCreator",
          "name": "",
          "type": "address"
        }
      ],
      "stateMutability": "view",
      "type": "function"
    },
    {
      "inputs": [],
      "name": "feeRate",
      "outputs": [
        {
          "internalType": "uint256",
          "name": "",
          "type": "uint256"
        }
      ],
      "stateMutability": "view",
      "type": "function"
    },
    {
      "inputs": [],
      "name": "feedsToken",
      "outputs": [
        {
          "internalType": "contract FeedsToken",
          "name": "",
          "type": "address"
        }
      ],
      "stateMutability": "view",
      "type": "function"
    },
    {
      "inputs": [
        {
          "internalType": "bytes32",
          "name": "role",
          "type": "bytes32"
        }
      ],
      "name": "getRoleAdmin",
      "outputs": [
        {
          "internalType": "bytes32",
          "name": "",
          "type": "bytes32"
        }
      ],
      "stateMutability": "view",
      "type": "function"
    },
    {
      "inputs": [
        {
          "internalType": "bytes32",
          "name": "role",
          "type": "bytes32"
        },
        {
          "internalType": "address",
          "name": "account",
          "type": "address"
        }
      ],
      "name": "grantRole",
      "outputs": [],
      "stateMutability": "nonpayable",
      "type": "function"
    },
    {
      "inputs": [
        {
          "internalType": "bytes32",
          "name": "role",
          "type": "bytes32"
        },
        {
          "internalType": "address",
          "name": "account",
          "type": "address"
        }
      ],
      "name": "hasRole",
      "outputs": [
        {
          "internalType": "bool",
          "name": "",
          "type": "bool"
        }
      ],
      "stateMutability": "view",
      "type": "function"
    },
    {
      "inputs": [
        {
          "internalType": "bytes32",
          "name": "role",
          "type": "bytes32"
        },
        {
          "internalType": "address",
          "name": "callerConfirmation",
          "type": "address"
        }
      ],
      "name": "renounceRole",
      "outputs": [],
      "stateMutability": "nonpayable",
      "type": "function"
    },
    {
      "inputs": [
        {
          "internalType": "bytes32",
          "name": "role",
          "type": "bytes32"
        },
        {
          "internalType": "address",
          "name": "account",
          "type": "address"
        }
      ],
      "name": "revokeRole",
      "outputs": [],
      "stateMutability": "nonpayable",
      "type": "function"
    },
    {
      "inputs": [
        {
          "internalType": "bytes4",
          "name": "interfaceId",
          "type": "bytes4"
        }
      ],
      "name": "supportsInterface",
      "outputs": [
        {
          "internalType": "bool",
          "name": "",
          "type": "bool"
        }
      ],
      "stateMutability": "view",
      "type": "function"
    }
  ],
  "bytecode": "0x60806040523480156200001157600080fd5b50604051620018a1380380620018a18339818101604052810190620000379190620002fb565b6200004c6000801b33620000d760201b60201c565b5081600260006101000a81548173ffffffffffffffffffffffffffffffffffffffff021916908373ffffffffffffffffffffffffffffffffffffffff16021790555080600360006101000a81548173ffffffffffffffffffffffffffffffffffffffff021916908373ffffffffffffffffffffffffffffffffffffffff160217905550505062000342565b6000620000eb8383620001da60201b60201c565b620001cf57600160008085815260200190815260200160002060000160008473ffffffffffffffffffffffffffffffffffffffff1673ffffffffffffffffffffffffffffffffffffffff16815260200190815260200160002060006101000a81548160ff0219169083151502179055506200016b6200024460201b60201c565b73ffffffffffffffffffffffffffffffffffffffff168273ffffffffffffffffffffffffffffffffffffffff16847f2f8788117e7eff1d82e926ec794901d17c78024a50270940304540a733656f0d60405160405180910390a460019050620001d4565b600090505b92915050565b600080600084815260200190815260200160002060000160008373ffffffffffffffffffffffffffffffffffffffff1673ffffffffffffffffffffffffffffffffffffffff16815260200190815260200160002060009054906101000a900460ff16905092915050565b600033905090565b600080fd5b600073ffffffffffffffffffffffffffffffffffffffff82169050919050565b60006200027e8262000251565b9050919050565b620002908162000271565b81146200029c57600080fd5b50565b600081519050620002b08162000285565b92915050565b6000620002c38262000251565b9050919050565b620002d581620002b6565b8114620002e157600080fd5b50565b600081519050620002f581620002ca565b92915050565b600080604083850312156200031557620003146200024c565b5b600062000325858286016200029f565b92505060206200033885828601620002e4565b9150509250929050565b61154f80620003526000396000f3fe608060405234801561001057600080fd5b50600436106101585760003560e01c806391d14854116100c3578063b7660cd31161007c578063b7660cd3146103a9578063caf601e1146103d9578063d547741f146103f7578063f22b9ab614610413578063f8ebc03914610431578063fc23413a1461044d57610158565b806391d14854146102e3578063978bbdb914610313578063980e3af814610331578063a217fddf1461034f578063a720640e1461036d578063ad4fb5cd1461038b57610158565b806336568abe1161011557806336568abe146102335780633e7a3e3e1461024f5780635c1072641461026d5780635e0118b61461028b57806389c72556146102a95780638aeda25a146102c557610158565b806301ffc9a71461015d578063248a9ca31461018d5780632576bdea146101bd5780632f2ff15d146101db57806334b89fb7146101f7578063362c3ab814610215575b600080fd5b61017760048036038101906101729190610dd5565b61046b565b6040516101849190610e1d565b60405180910390f35b6101a760048036038101906101a29190610e6e565b6104e5565b6040516101b49190610eaa565b60405180910390f35b6101c5610504565b6040516101d29190610eaa565b60405180910390f35b6101f560048036038101906101f09190610f23565b610528565b005b6101ff61054a565b60405161020c9190610ff3565b60405180910390f35b61021d610583565b60405161022a9190610ff3565b60405180910390f35b61024d60048036038101906102489190610f23565b6105bc565b005b610257610637565b6040516102649190611074565b60405180910390f35b61027561065d565b6040516102829190610ff3565b60405180910390f35b610293610696565b6040516102a09190610eaa565b60405180910390f35b6102c360048036038101906102be91906111d7565b6106ba565b005b6102cd6107ba565b6040516102da9190610eaa565b60405180910390f35b6102fd60048036038101906102f89190610f23565b6107de565b60405161030a9190610e1d565b60405180910390f35b61031b610848565b6040516103289190611239565b60405180910390f35b61033961084e565b6040516103469190610eaa565b60405180910390f35b610357610872565b6040516103649190610eaa565b60405180910390f35b610375610879565b6040516103829190610eaa565b60405180910390f35b61039361089d565b6040516103a09190610ff3565b60405180910390f35b6103c360048036038101906103be9190611254565b6108d6565b6040516103d09190610e1d565b60405180910390f35b6103e16108f6565b6040516103ee91906112b4565b60405180910390f35b610411600480360381019061040c9190610f23565b61091c565b005b61041b61093e565b6040516104289190610ff3565b60405180910390f35b61044b600480360381019061044691906113b0565b610977565b005b610455610a76565b6040516104629190610ff3565b60405180910390f35b60007f7965db0b000000000000000000000000000000000000000000000000000000007bffffffffffffffffffffffffffffffffffffffffffffffffffffffff1916827bffffffffffffffffffffffffffffffffffffffffffffffffffffffff191614806104de57506104dd82610aaf565b5b9050919050565b6000806000838152602001908152602001600020600101549050919050565b7f4b3781db2a3808229e80877aa6761365508dec12dd2e53e8aa88fa3d4ec3728e81565b610531826104e5565b61053a81610b19565b6105448383610b2d565b50505050565b6040518060400160405280601381526020017f556e617574686f7269736564206163636573730000000000000000000000000081525081565b6040518060400160405280600d81526020017f496e76616c69642070726963650000000000000000000000000000000000000081525081565b6105c4610c1e565b73ffffffffffffffffffffffffffffffffffffffff168173ffffffffffffffffffffffffffffffffffffffff1614610628576040517f6697b23200000000000000000000000000000000000000000000000000000000815260040160405180910390fd5b6106328282610c26565b505050565b600260009054906101000a900473ffffffffffffffffffffffffffffffffffffffff1681565b6040518060400160405280600e81526020017f50726f63657373206661696c656400000000000000000000000000000000000081525081565b7f0e071082e8835e151107baeb3781cd9c05e5a89fda0b31203ab6c4fe9ab6053e81565b6000801b6106c781610b19565b60005b82518110156107b5576001600460008584815181106106ec576106eb61143b565b5b602002602001015173ffffffffffffffffffffffffffffffffffffffff1673ffffffffffffffffffffffffffffffffffffffff16815260200190815260200160002060006101000a81548160ff0219169083151502179055508281815181106107585761075761143b565b5b602002602001015173ffffffffffffffffffffffffffffffffffffffff167f784c8f4dbf0ffedd6e72c76501c545a70f8b203b30a26ce542bf92ba87c248a460405160405180910390a280806107ad90611499565b9150506106ca565b505050565b7f828634d95e775031b9ff576b159a8509d3053581a8c9c4d7d86899e0afcd882f81565b600080600084815260200190815260200160002060000160008373ffffffffffffffffffffffffffffffffffffffff1673ffffffffffffffffffffffffffffffffffffffff16815260200190815260200160002060009054906101000a900460ff16905092915050565b60015481565b7f2181c3a1e1946525e992f349aaf934d32ac0f996941711c8feead97c8903541281565b6000801b81565b7f32863739b48df1305798f7fcf52babbde2cbca78a222d5c3cafc17f2126a030481565b6040518060400160405280601281526020017f5265736f75726365206e6f7420666f756e64000000000000000000000000000081525081565b60046020528060005260406000206000915054906101000a900460ff1681565b600360009054906101000a900473ffffffffffffffffffffffffffffffffffffffff1681565b610925826104e5565b61092e81610b19565b6109388383610c26565b50505050565b6040518060400160405280601781526020017f5265736f7572636520616c72656164792065786973747300000000000000000081525081565b60008251116040518060400160405280600e81526020017f496e76616c696420737472696e67000000000000000000000000000000000000815250906109f3576040517f08c379a00000000000000000000000000000000000000000000000000000000081526004016109ea9190610ff3565b60405180910390fd5b5060008151116040518060400160405280600e81526020017f496e76616c696420737472696e6700000000000000000000000000000000000081525090610a70576040517f08c379a0000000000000000000000000000000000000000000000000000000008152600401610a679190610ff3565b60405180910390fd5b50505050565b6040518060400160405280600e81526020017f496e76616c696420737472696e6700000000000000000000000000000000000081525081565b60007f01ffc9a7000000000000000000000000000000000000000000000000000000007bffffffffffffffffffffffffffffffffffffffffffffffffffffffff1916827bffffffffffffffffffffffffffffffffffffffffffffffffffffffff1916149050919050565b610b2a81610b25610c1e565b610d18565b50565b6000610b3983836107de565b610c1357600160008085815260200190815260200160002060000160008473ffffffffffffffffffffffffffffffffffffffff1673ffffffffffffffffffffffffffffffffffffffff16815260200190815260200160002060006101000a81548160ff021916908315150217905550610bb0610c1e565b73ffffffffffffffffffffffffffffffffffffffff168273ffffffffffffffffffffffffffffffffffffffff16847f2f8788117e7eff1d82e926ec794901d17c78024a50270940304540a733656f0d60405160405180910390a460019050610c18565b600090505b92915050565b600033905090565b6000610c3283836107de565b15610d0d57600080600085815260200190815260200160002060000160008473ffffffffffffffffffffffffffffffffffffffff1673ffffffffffffffffffffffffffffffffffffffff16815260200190815260200160002060006101000a81548160ff021916908315150217905550610caa610c1e565b73ffffffffffffffffffffffffffffffffffffffff168273ffffffffffffffffffffffffffffffffffffffff16847ff6391f5c32d9c69d2a47ea670b442974b53935d1edc7fd64eb21e047a839171b60405160405180910390a460019050610d12565b600090505b92915050565b610d2282826107de565b610d655780826040517fe2517d3f000000000000000000000000000000000000000000000000000000008152600401610d5c9291906114f0565b60405180910390fd5b5050565b6000604051905090565b600080fd5b600080fd5b60007fffffffff0000000000000000000000000000000000000000000000000000000082169050919050565b610db281610d7d565b8114610dbd57600080fd5b50565b600081359050610dcf81610da9565b92915050565b600060208284031215610deb57610dea610d73565b5b6000610df984828501610dc0565b91505092915050565b60008115159050919050565b610e1781610e02565b82525050565b6000602082019050610e326000830184610e0e565b92915050565b6000819050919050565b610e4b81610e38565b8114610e5657600080fd5b50565b600081359050610e6881610e42565b92915050565b600060208284031215610e8457610e83610d73565b5b6000610e9284828501610e59565b91505092915050565b610ea481610e38565b82525050565b6000602082019050610ebf6000830184610e9b565b92915050565b600073ffffffffffffffffffffffffffffffffffffffff82169050919050565b6000610ef082610ec5565b9050919050565b610f0081610ee5565b8114610f0b57600080fd5b50565b600081359050610f1d81610ef7565b92915050565b60008060408385031215610f3a57610f39610d73565b5b6000610f4885828601610e59565b9250506020610f5985828601610f0e565b9150509250929050565b600081519050919050565b600082825260208201905092915050565b60005b83811015610f9d578082015181840152602081019050610f82565b60008484015250505050565b6000601f19601f8301169050919050565b6000610fc582610f63565b610fcf8185610f6e565b9350610fdf818560208601610f7f565b610fe881610fa9565b840191505092915050565b6000602082019050818103600083015261100d8184610fba565b905092915050565b6000819050919050565b600061103a61103561103084610ec5565b611015565b610ec5565b9050919050565b600061104c8261101f565b9050919050565b600061105e82611041565b9050919050565b61106e81611053565b82525050565b60006020820190506110896000830184611065565b92915050565b600080fd5b7f4e487b7100000000000000000000000000000000000000000000000000000000600052604160045260246000fd5b6110cc82610fa9565b810181811067ffffffffffffffff821117156110eb576110ea611094565b5b80604052505050565b60006110fe610d69565b905061110a82826110c3565b919050565b600067ffffffffffffffff82111561112a57611129611094565b5b602082029050602081019050919050565b600080fd5b600061115361114e8461110f565b6110f4565b905080838252602082019050602084028301858111156111765761117561113b565b5b835b8181101561119f578061118b8882610f0e565b845260208401935050602081019050611178565b5050509392505050565b600082601f8301126111be576111bd61108f565b5b81356111ce848260208601611140565b91505092915050565b6000602082840312156111ed576111ec610d73565b5b600082013567ffffffffffffffff81111561120b5761120a610d78565b5b611217848285016111a9565b91505092915050565b6000819050919050565b61123381611220565b82525050565b600060208201905061124e600083018461122a565b92915050565b60006020828403121561126a57611269610d73565b5b600061127884828501610f0e565b91505092915050565b600061128c8261101f565b9050919050565b600061129e82611281565b9050919050565b6112ae81611293565b82525050565b60006020820190506112c960008301846112a5565b92915050565b6112d881611220565b81146112e357600080fd5b50565b6000813590506112f5816112cf565b92915050565b600080fd5b600067ffffffffffffffff82111561131b5761131a611094565b5b61132482610fa9565b9050602081019050919050565b82818337600083830152505050565b600061135361134e84611300565b6110f4565b90508281526020810184848401111561136f5761136e6112fb565b5b61137a848285611331565b509392505050565b600082601f8301126113975761139661108f565b5b81356113a7848260208601611340565b91505092915050565b6000806000606084860312156113c9576113c8610d73565b5b60006113d7868287016112e6565b935050602084013567ffffffffffffffff8111156113f8576113f7610d78565b5b61140486828701611382565b925050604084013567ffffffffffffffff81111561142557611424610d78565b5b61143186828701611382565b9150509250925092565b7f4e487b7100000000000000000000000000000000000000000000000000000000600052603260045260246000fd5b7f4e487b7100000000000000000000000000000000000000000000000000000000600052601160045260246000fd5b60006114a482611220565b91507fffffffffffffffffffffffffffffffffffffffffffffffffffffffffffffffff82036114d6576114d561146a565b5b600182019050919050565b6114ea81610ee5565b82525050565b600060408201905061150560008301856114e1565b6115126020830184610e9b565b939250505056fea2646970667358221220d354dd1b5715dc1f1ce23f39bb718f9ca5f13cb358a824668223cbea7f9f14b664736f6c63430008140033",
  "linkReferences": {},
  "deployedLinkReferences": {}
}